{
  "_format": "hh-sol-artifact-1",
  "contractName": "Marketplace",
  "sourceName": "contracts/Marketplace.sol",
  "abi": [
    {
      "inputs": [
        {
          "internalType": "address",
          "name": "_registry",
          "type": "address"
        },
        {
          "internalType": "address",
          "name": "_treasury",
          "type": "address"
        },
        {
          "internalType": "address",
          "name": "admin",
          "type": "address"
        }
      ],
      "stateMutability": "nonpayable",
      "type": "constructor"
    },
    {
      "inputs": [],
      "name": "AccessControlBadConfirmation",
      "type": "error"
    },
    {
      "inputs": [
        {
          "internalType": "address",
          "name": "account",
          "type": "address"
        },
        {
          "internalType": "bytes32",
          "name": "neededRole",
          "type": "bytes32"
        }
      ],
      "name": "AccessControlUnauthorizedAccount",
      "type": "error"
    },
    {
      "inputs": [],
      "name": "ReentrancyGuardReentrantCall",
      "type": "error"
    },
    {
      "anonymous": false,
      "inputs": [
        {
          "indexed": false,
          "internalType": "uint256",
          "name": "oldFee",
          "type": "uint256"
        },
        {
          "indexed": false,
          "internalType": "uint256",
          "name": "newFee",
          "type": "uint256"
        }
      ],
      "name": "FeeUpdated",
      "type": "event"
    },
    {
      "anonymous": false,
      "inputs": [
        {
          "indexed": true,
          "internalType": "uint256",
          "name": "propertyId",
          "type": "uint256"
        },
        {
          "indexed": true,
          "internalType": "address",
          "name": "seller",
          "type": "address"
        },
        {
          "indexed": false,
          "internalType": "uint256",
          "name": "price",
          "type": "uint256"
        }
      ],
      "name": "PropertyListed",
      "type": "event"
    },
    {
      "anonymous": false,
      "inputs": [
        {
          "indexed": true,
          "internalType": "uint256",
          "name": "propertyId",
          "type": "uint256"
        },
        {
          "indexed": true,
          "internalType": "address",
          "name": "buyer",
          "type": "address"
        },
        {
          "indexed": false,
          "internalType": "uint256",
          "name": "price",
          "type": "uint256"
        },
        {
          "indexed": false,
          "internalType": "uint256",
          "name": "fee",
          "type": "uint256"
        }
      ],
      "name": "PropertySold",
      "type": "event"
    },
    {
      "anonymous": false,
      "inputs": [
        {
          "indexed": true,
          "internalType": "bytes32",
          "name": "role",
          "type": "bytes32"
        },
        {
          "indexed": true,
          "internalType": "bytes32",
          "name": "previousAdminRole",
          "type": "bytes32"
        },
        {
          "indexed": true,
          "internalType": "bytes32",
          "name": "newAdminRole",
          "type": "bytes32"
        }
      ],
      "name": "RoleAdminChanged",
      "type": "event"
    },
    {
      "anonymous": false,
      "inputs": [
        {
          "indexed": true,
          "internalType": "bytes32",
          "name": "role",
          "type": "bytes32"
        },
        {
          "indexed": true,
          "internalType": "address",
          "name": "account",
          "type": "address"
        },
        {
          "indexed": true,
          "internalType": "address",
          "name": "sender",
          "type": "address"
        }
      ],
      "name": "RoleGranted",
      "type": "event"
    },
    {
      "anonymous": false,
      "inputs": [
        {
          "indexed": true,
          "internalType": "bytes32",
          "name": "role",
          "type": "bytes32"
        },
        {
          "indexed": true,
          "internalType": "address",
          "name": "account",
          "type": "address"
        },
        {
          "indexed": true,
          "internalType": "address",
          "name": "sender",
          "type": "address"
        }
      ],
      "name": "RoleRevoked",
      "type": "event"
    },
    {
      "inputs": [],
      "name": "ADMIN_ROLE",
      "outputs": [
        {
          "internalType": "bytes32",
          "name": "",
          "type": "bytes32"
        }
      ],
      "stateMutability": "view",
      "type": "function"
    },
    {
      "inputs": [],
      "name": "DEFAULT_ADMIN_ROLE",
      "outputs": [
        {
          "internalType": "bytes32",
          "name": "",
          "type": "bytes32"
        }
      ],
      "stateMutability": "view",
      "type": "function"
    },
    {
      "inputs": [
        {
          "internalType": "uint256",
          "name": "propertyId",
          "type": "uint256"
        }
      ],
      "name": "buyProperty",
      "outputs": [],
      "stateMutability": "payable",
      "type": "function"
    },
    {
      "inputs": [],
      "name": "feeBps",
      "outputs": [
        {
          "internalType": "uint256",
          "name": "",
          "type": "uint256"
        }
      ],
      "stateMutability": "view",
      "type": "function"
    },
    {
      "inputs": [
        {
          "internalType": "bytes32",
          "name": "role",
          "type": "bytes32"
        }
      ],
      "name": "getRoleAdmin",
      "outputs": [
        {
          "internalType": "bytes32",
          "name": "",
          "type": "bytes32"
        }
      ],
      "stateMutability": "view",
      "type": "function"
    },
    {
      "inputs": [
        {
          "internalType": "bytes32",
          "name": "role",
          "type": "bytes32"
        },
        {
          "internalType": "address",
          "name": "account",
          "type": "address"
        }
      ],
      "name": "grantRole",
      "outputs": [],
      "stateMutability": "nonpayable",
      "type": "function"
    },
    {
      "inputs": [
        {
          "internalType": "bytes32",
          "name": "role",
          "type": "bytes32"
        },
        {
          "internalType": "address",
          "name": "account",
          "type": "address"
        }
      ],
      "name": "hasRole",
      "outputs": [
        {
          "internalType": "bool",
          "name": "",
          "type": "bool"
        }
      ],
      "stateMutability": "view",
      "type": "function"
    },
    {
      "inputs": [
        {
          "internalType": "uint256",
          "name": "propertyId",
          "type": "uint256"
        },
        {
          "internalType": "uint256",
          "name": "price",
          "type": "uint256"
        }
      ],
      "name": "listProperty",
      "outputs": [],
      "stateMutability": "nonpayable",
      "type": "function"
    },
    {
      "inputs": [
        {
          "internalType": "uint256",
          "name": "",
          "type": "uint256"
        }
      ],
      "name": "listings",
      "outputs": [
        {
          "internalType": "uint256",
          "name": "propertyId",
          "type": "uint256"
        },
        {
          "internalType": "address",
          "name": "seller",
          "type": "address"
        },
        {
          "internalType": "uint256",
          "name": "price",
          "type": "uint256"
        },
        {
          "internalType": "bool",
          "name": "active",
          "type": "bool"
        }
      ],
      "stateMutability": "view",
      "type": "function"
    },
    {
      "inputs": [],
      "name": "registry",
      "outputs": [
        {
          "internalType": "contract PropertyRegistry",
          "name": "",
          "type": "address"
        }
      ],
      "stateMutability": "view",
      "type": "function"
    },
    {
      "inputs": [
        {
          "internalType": "bytes32",
          "name": "role",
          "type": "bytes32"
        },
        {
          "internalType": "address",
          "name": "callerConfirmation",
          "type": "address"
        }
      ],
      "name": "renounceRole",
      "outputs": [],
      "stateMutability": "nonpayable",
      "type": "function"
    },
    {
      "inputs": [
        {
          "internalType": "bytes32",
          "name": "role",
          "type": "bytes32"
        },
        {
          "internalType": "address",
          "name": "account",
          "type": "address"
        }
      ],
      "name": "revokeRole",
      "outputs": [],
      "stateMutability": "nonpayable",
      "type": "function"
    },
    {
      "inputs": [
        {
          "internalType": "bytes4",
          "name": "interfaceId",
          "type": "bytes4"
        }
      ],
      "name": "supportsInterface",
      "outputs": [
        {
          "internalType": "bool",
          "name": "",
          "type": "bool"
        }
      ],
      "stateMutability": "view",
      "type": "function"
    },
    {
      "inputs": [],
      "name": "treasury",
      "outputs": [
        {
          "internalType": "address",
          "name": "",
          "type": "address"
        }
      ],
      "stateMutability": "view",
      "type": "function"
    },
    {
      "inputs": [
        {
          "internalType": "uint256",
          "name": "newFee",
          "type": "uint256"
        }
      ],
      "name": "updateFee",
      "outputs": [],
      "stateMutability": "nonpayable",
      "type": "function"
    }
  ],
  "bytecode": "0x60c0604052603260025534801561001557600080fd5b5060405161109e38038061109e83398101604081905261003491610152565b600180556001600160a01b03808416608052821660a05261005660008261008a565b506100817fa49807205ce4d355092ef5a8a18f56e8913cf4a201fbe287825b095693c217758261008a565b50505050610195565b6000828152602081815260408083206001600160a01b038516845290915281205460ff1661012c576000838152602081815260408083206001600160a01b03861684529091529020805460ff191660011790556100e43390565b6001600160a01b0316826001600160a01b0316847f2f8788117e7eff1d82e926ec794901d17c78024a50270940304540a733656f0d60405160405180910390a4506001610130565b5060005b92915050565b80516001600160a01b038116811461014d57600080fd5b919050565b60008060006060848603121561016757600080fd5b61017084610136565b925061017e60208501610136565b915061018c60408501610136565b90509250925092565b60805160a051610ecf6101cf600039600081816101ea01526107a601526000818161027d0152818161044101526108930152610ecf6000f3fe6080604052600436106100e85760003560e01c80636fa830a61161008a57806391d148541161005957806391d14854146102bf578063a217fddf146102df578063d547741f146102f4578063de74e57b1461031457600080fd5b80636fa830a61461022457806375b238fc146102375780637b1039991461026b5780639012c4a81461029f57600080fd5b80632f2ff15d116100c65780632f2ff15d1461017657806336568abe146101985780634eda529b146101b857806361d027b3146101d857600080fd5b806301ffc9a7146100ed578063248a9ca31461012257806324a9d85314610160575b600080fd5b3480156100f957600080fd5b5061010d610108366004610bae565b61038e565b60405190151581526020015b60405180910390f35b34801561012e57600080fd5b5061015261013d366004610bdf565b60009081526020819052604090206001015490565b604051908152602001610119565b34801561016c57600080fd5b5061015260025481565b34801561018257600080fd5b50610196610191366004610c0d565b6103c5565b005b3480156101a457600080fd5b506101966101b3366004610c0d565b6103f0565b3480156101c457600080fd5b506101966101d3366004610c3d565b610428565b3480156101e457600080fd5b5061020c7f000000000000000000000000000000000000000000000000000000000000000081565b6040516001600160a01b039091168152602001610119565b610196610232366004610bdf565b610638565b34801561024357600080fd5b506101527fa49807205ce4d355092ef5a8a18f56e8913cf4a201fbe287825b095693c2177581565b34801561027757600080fd5b5061020c7f000000000000000000000000000000000000000000000000000000000000000081565b3480156102ab57600080fd5b506101966102ba366004610bdf565b610945565b3480156102cb57600080fd5b5061010d6102da366004610c0d565b6109f2565b3480156102eb57600080fd5b50610152600081565b34801561030057600080fd5b5061019661030f366004610c0d565b610a1b565b34801561032057600080fd5b5061036461032f366004610bdf565b6003602081905260009182526040909120805460018201546002830154929093015490926001600160a01b0316919060ff1684565b604080519485526001600160a01b0390931660208501529183015215156060820152608001610119565b60006001600160e01b03198216637965db0b60e01b14806103bf57506301ffc9a760e01b6001600160e01b03198316145b92915050565b6000828152602081905260409020600101546103e081610a40565b6103ea8383610a4a565b50505050565b6001600160a01b03811633146104195760405163334bd91960e11b815260040160405180910390fd5b6104238282610adc565b505050565b6040516332665ffb60e01b8152600481018390526000907f00000000000000000000000000000000000000000000000000000000000000006001600160a01b0316906332665ffb90602401600060405180830381865afa158015610490573d6000803e3d6000fd5b505050506040513d6000823e601f3d908101601f191682016040526104b89190810190610d75565b60208101519091506001600160a01b031633146105085760405162461bcd60e51b81526020600482015260096024820152682737ba1037bbb732b960b91b60448201526064015b60405180910390fd5b8060c001516105445760405162461bcd60e51b8152602060048201526008602482015267496e61637469766560c01b60448201526064016104ff565b8060a0015161058d5760405162461bcd60e51b8152602060048201526015602482015274141c9bdc195c9d1e481b9bdd081d995c9a599a5959605a1b60448201526064016104ff565b6040805160808101825284815233602080830182815283850187815260016060860181815260008b815260038087529089902097518855935191870180546001600160a01b0319166001600160a01b039093169290921790915590516002860155519301805460ff191693151593909317909255915184815285917f23fb658c1698b92f5fe511a079c17ecf7965cbc3f1b873328c67e2c3c0820f1f910160405180910390a3505050565b610640610b47565b60008181526003602081905260409091209081015460ff166106915760405162461bcd60e51b815260206004820152600a602482015269139bdd081b1a5cdd195960b21b60448201526064016104ff565b806002015434146106d45760405162461bcd60e51b815260206004820152600d60248201526c092dcc6dee4e4cac6e8408aa89609b1b60448201526064016104ff565b6000612710600254346106e79190610e4d565b6106f19190610e64565b905060006106ff8234610e86565b60018401546040519192506000916001600160a01b039091169083908381818185875af1925050503d8060008114610753576040519150601f19603f3d011682016040523d82523d6000602084013e610758565b606091505b50509050806107a25760405162461bcd60e51b815260206004820152601660248201527514d95b1b195c881d1c985b9cd9995c8819985a5b195960521b60448201526064016104ff565b60007f00000000000000000000000000000000000000000000000000000000000000006001600160a01b03168460405160006040518083038185875af1925050503d806000811461080f576040519150601f19603f3d011682016040523d82523d6000602084013e610814565b606091505b50509050806108655760405162461bcd60e51b815260206004820152601860248201527f5472656173757279207472616e73666572206661696c6564000000000000000060448201526064016104ff565b60038501805460ff19169055604051639291e8b760e01b8152600481018790523360248201523460448201527f00000000000000000000000000000000000000000000000000000000000000006001600160a01b031690639291e8b790606401600060405180830381600087803b1580156108df57600080fd5b505af11580156108f3573d6000803e3d6000fd5b505060408051348152602081018890523393508992507fb8eb1cc53ea2b093b81da1e4ab922ac9f920518bc7031f11dc1ea3ab64733671910160405180910390a3505050505061094260018055565b50565b7fa49807205ce4d355092ef5a8a18f56e8913cf4a201fbe287825b095693c2177561096f81610a40565b6101f48211156109b05760405162461bcd60e51b815260206004820152600c60248201526b08ccaca40e8dede40d0d2ced60a31b60448201526064016104ff565b60025460408051918252602082018490527f528d9479e9f9889a87a3c30c7f7ba537e5e59c4c85a37733b16e57c62df61302910160405180910390a150600255565b6000918252602082815260408084206001600160a01b0393909316845291905290205460ff1690565b600082815260208190526040902060010154610a3681610a40565b6103ea8383610adc565b6109428133610b71565b6000610a5683836109f2565b610ad4576000838152602081815260408083206001600160a01b03861684529091529020805460ff19166001179055610a8c3390565b6001600160a01b0316826001600160a01b0316847f2f8788117e7eff1d82e926ec794901d17c78024a50270940304540a733656f0d60405160405180910390a45060016103bf565b5060006103bf565b6000610ae883836109f2565b15610ad4576000838152602081815260408083206001600160a01b0386168085529252808320805460ff1916905551339286917ff6391f5c32d9c69d2a47ea670b442974b53935d1edc7fd64eb21e047a839171b9190a45060016103bf565b600260015403610b6a57604051633ee5aeb560e01b815260040160405180910390fd5b6002600155565b610b7b82826109f2565b610baa5760405163e2517d3f60e01b81526001600160a01b0382166004820152602481018390526044016104ff565b5050565b600060208284031215610bc057600080fd5b81356001600160e01b031981168114610bd857600080fd5b9392505050565b600060208284031215610bf157600080fd5b5035919050565b6001600160a01b038116811461094257600080fd5b60008060408385031215610c2057600080fd5b823591506020830135610c3281610bf8565b809150509250929050565b60008060408385031215610c5057600080fd5b50508035926020909101359150565b634e487b7160e01b600052604160045260246000fd5b60405160e0810167ffffffffffffffff81118282101715610c9857610c98610c5f565b60405290565b604051601f8201601f1916810167ffffffffffffffff81118282101715610cc757610cc7610c5f565b604052919050565b8051610cda81610bf8565b919050565b600082601f830112610cf057600080fd5b815167ffffffffffffffff811115610d0a57610d0a610c5f565b610d1d601f8201601f1916602001610c9e565b818152846020838601011115610d3257600080fd5b60005b82811015610d5157602081860181015183830182015201610d35565b506000918101602001919091529392505050565b80518015158114610cda57600080fd5b600060208284031215610d8757600080fd5b815167ffffffffffffffff811115610d9e57600080fd5b820160e08185031215610db057600080fd5b610db8610c75565b81518152610dc860208301610ccf565b60208201526040828101519082015260608083015190820152608082015167ffffffffffffffff811115610dfb57600080fd5b610e0786828501610cdf565b608083015250610e1960a08301610d65565b60a0820152610e2a60c08301610d65565b60c0820152949350505050565b634e487b7160e01b600052601160045260246000fd5b80820281158282048414176103bf576103bf610e37565b600082610e8157634e487b7160e01b600052601260045260246000fd5b500490565b818103818111156103bf576103bf610e3756fea26469706673582212208cc0de7dd2fe67bc1a3dd62d442aa6ac1b1373240b3677cb6e4a9e9f8bcfb94364736f6c634300081e0033",
  "linkReferences": {},
  "deployedLinkReferences": {}
}