{
  "_format": "hh-sol-artifact-1",
  "contractName": "PropertyToken",
  "sourceName": "contracts/PropertyToken.sol",
  "abi": [
    {
      "inputs": [
        {
          "internalType": "string",
          "name": "name_",
          "type": "string"
        },
        {
          "internalType": "string",
          "name": "symbol_",
          "type": "string"
        },
        {
          "internalType": "uint256",
          "name": "supply_",
          "type": "uint256"
        },
        {
          "internalType": "address",
          "name": "owner_",
          "type": "address"
        },
        {
          "internalType": "address",
          "name": "registry_",
          "type": "address"
        },
        {
          "internalType": "uint256",
          "name": "propertyId_",
          "type": "uint256"
        }
      ],
      "stateMutability": "nonpayable",
      "type": "constructor"
    },
    {
      "inputs": [],
      "name": "ECDSAInvalidSignature",
      "type": "error"
    },
    {
      "inputs": [
        {
          "internalType": "uint256",
          "name": "length",
          "type": "uint256"
        }
      ],
      "name": "ECDSAInvalidSignatureLength",
      "type": "error"
    },
    {
      "inputs": [
        {
          "internalType": "bytes32",
          "name": "s",
          "type": "bytes32"
        }
      ],
      "name": "ECDSAInvalidSignatureS",
      "type": "error"
    },
    {
      "inputs": [
        {
          "internalType": "address",
          "name": "spender",
          "type": "address"
        },
        {
          "internalType": "uint256",
          "name": "allowance",
          "type": "uint256"
        },
        {
          "internalType": "uint256",
          "name": "needed",
          "type": "uint256"
        }
      ],
      "name": "ERC20InsufficientAllowance",
      "type": "error"
    },
    {
      "inputs": [
        {
          "internalType": "address",
          "name": "sender",
          "type": "address"
        },
        {
          "internalType": "uint256",
          "name": "balance",
          "type": "uint256"
        },
        {
          "internalType": "uint256",
          "name": "needed",
          "type": "uint256"
        }
      ],
      "name": "ERC20InsufficientBalance",
      "type": "error"
    },
    {
      "inputs": [
        {
          "internalType": "address",
          "name": "approver",
          "type": "address"
        }
      ],
      "name": "ERC20InvalidApprover",
      "type": "error"
    },
    {
      "inputs": [
        {
          "internalType": "address",
          "name": "receiver",
          "type": "address"
        }
      ],
      "name": "ERC20InvalidReceiver",
      "type": "error"
    },
    {
      "inputs": [
        {
          "internalType": "address",
          "name": "sender",
          "type": "address"
        }
      ],
      "name": "ERC20InvalidSender",
      "type": "error"
    },
    {
      "inputs": [
        {
          "internalType": "address",
          "name": "spender",
          "type": "address"
        }
      ],
      "name": "ERC20InvalidSpender",
      "type": "error"
    },
    {
      "inputs": [
        {
          "internalType": "uint256",
          "name": "deadline",
          "type": "uint256"
        }
      ],
      "name": "ERC2612ExpiredSignature",
      "type": "error"
    },
    {
      "inputs": [
        {
          "internalType": "address",
          "name": "signer",
          "type": "address"
        },
        {
          "internalType": "address",
          "name": "owner",
          "type": "address"
        }
      ],
      "name": "ERC2612InvalidSigner",
      "type": "error"
    },
    {
      "inputs": [
        {
          "internalType": "address",
          "name": "account",
          "type": "address"
        },
        {
          "internalType": "uint256",
          "name": "currentNonce",
          "type": "uint256"
        }
      ],
      "name": "InvalidAccountNonce",
      "type": "error"
    },
    {
      "inputs": [],
      "name": "InvalidShortString",
      "type": "error"
    },
    {
      "inputs": [
        {
          "internalType": "string",
          "name": "str",
          "type": "string"
        }
      ],
      "name": "StringTooLong",
      "type": "error"
    },
    {
      "anonymous": false,
      "inputs": [
        {
          "indexed": true,
          "internalType": "address",
          "name": "owner",
          "type": "address"
        },
        {
          "indexed": true,
          "internalType": "address",
          "name": "spender",
          "type": "address"
        },
        {
          "indexed": false,
          "internalType": "uint256",
          "name": "value",
          "type": "uint256"
        }
      ],
      "name": "Approval",
      "type": "event"
    },
    {
      "anonymous": false,
      "inputs": [],
      "name": "EIP712DomainChanged",
      "type": "event"
    },
    {
      "anonymous": false,
      "inputs": [
        {
          "indexed": true,
          "internalType": "address",
          "name": "from",
          "type": "address"
        },
        {
          "indexed": true,
          "internalType": "address",
          "name": "to",
          "type": "address"
        },
        {
          "indexed": false,
          "internalType": "uint256",
          "name": "value",
          "type": "uint256"
        }
      ],
      "name": "Transfer",
      "type": "event"
    },
    {
      "inputs": [],
      "name": "DOMAIN_SEPARATOR",
      "outputs": [
        {
          "internalType": "bytes32",
          "name": "",
          "type": "bytes32"
        }
      ],
      "stateMutability": "view",
      "type": "function"
    },
    {
      "inputs": [
        {
          "internalType": "address",
          "name": "owner",
          "type": "address"
        },
        {
          "internalType": "address",
          "name": "spender",
          "type": "address"
        }
      ],
      "name": "allowance",
      "outputs": [
        {
          "internalType": "uint256",
          "name": "",
          "type": "uint256"
        }
      ],
      "stateMutability": "view",
      "type": "function"
    },
    {
      "inputs": [
        {
          "internalType": "address",
          "name": "spender",
          "type": "address"
        },
        {
          "internalType": "uint256",
          "name": "value",
          "type": "uint256"
        }
      ],
      "name": "approve",
      "outputs": [
        {
          "internalType": "bool",
          "name": "",
          "type": "bool"
        }
      ],
      "stateMutability": "nonpayable",
      "type": "function"
    },
    {
      "inputs": [
        {
          "internalType": "address",
          "name": "account",
          "type": "address"
        }
      ],
      "name": "balanceOf",
      "outputs": [
        {
          "internalType": "uint256",
          "name": "",
          "type": "uint256"
        }
      ],
      "stateMutability": "view",
      "type": "function"
    },
    {
      "inputs": [],
      "name": "decimals",
      "outputs": [
        {
          "internalType": "uint8",
          "name": "",
          "type": "uint8"
        }
      ],
      "stateMutability": "view",
      "type": "function"
    },
    {
      "inputs": [],
      "name": "eip712Domain",
      "outputs": [
        {
          "internalType": "bytes1",
          "name": "fields",
          "type": "bytes1"
        },
        {
          "internalType": "string",
          "name": "name",
          "type": "string"
        },
        {
          "internalType": "string",
          "name": "version",
          "type": "string"
        },
        {
          "internalType": "uint256",
          "name": "chainId",
          "type": "uint256"
        },
        {
          "internalType": "address",
          "name": "verifyingContract",
          "type": "address"
        },
        {
          "internalType": "bytes32",
          "name": "salt",
          "type": "bytes32"
        },
        {
          "internalType": "uint256[]",
          "name": "extensions",
          "type": "uint256[]"
        }
      ],
      "stateMutability": "view",
      "type": "function"
    },
    {
      "inputs": [],
      "name": "name",
      "outputs": [
        {
          "internalType": "string",
          "name": "",
          "type": "string"
        }
      ],
      "stateMutability": "view",
      "type": "function"
    },
    {
      "inputs": [
        {
          "internalType": "address",
          "name": "owner",
          "type": "address"
        }
      ],
      "name": "nonces",
      "outputs": [
        {
          "internalType": "uint256",
          "name": "",
          "type": "uint256"
        }
      ],
      "stateMutability": "view",
      "type": "function"
    },
    {
      "inputs": [
        {
          "internalType": "address",
          "name": "owner",
          "type": "address"
        },
        {
          "internalType": "address",
          "name": "spender",
          "type": "address"
        },
        {
          "internalType": "uint256",
          "name": "value",
          "type": "uint256"
        },
        {
          "internalType": "uint256",
          "name": "deadline",
          "type": "uint256"
        },
        {
          "internalType": "uint8",
          "name": "v",
          "type": "uint8"
        },
        {
          "internalType": "bytes32",
          "name": "r",
          "type": "bytes32"
        },
        {
          "internalType": "bytes32",
          "name": "s",
          "type": "bytes32"
        }
      ],
      "name": "permit",
      "outputs": [],
      "stateMutability": "nonpayable",
      "type": "function"
    },
    {
      "inputs": [],
      "name": "propertyId",
      "outputs": [
        {
          "internalType": "uint256",
          "name": "",
          "type": "uint256"
        }
      ],
      "stateMutability": "view",
      "type": "function"
    },
    {
      "inputs": [],
      "name": "registry",
      "outputs": [
        {
          "internalType": "address",
          "name": "",
          "type": "address"
        }
      ],
      "stateMutability": "view",
      "type": "function"
    },
    {
      "inputs": [],
      "name": "symbol",
      "outputs": [
        {
          "internalType": "string",
          "name": "",
          "type": "string"
        }
      ],
      "stateMutability": "view",
      "type": "function"
    },
    {
      "inputs": [],
      "name": "totalSupply",
      "outputs": [
        {
          "internalType": "uint256",
          "name": "",
          "type": "uint256"
        }
      ],
      "stateMutability": "view",
      "type": "function"
    },
    {
      "inputs": [
        {
          "internalType": "address",
          "name": "to",
          "type": "address"
        },
        {
          "internalType": "uint256",
          "name": "value",
          "type": "uint256"
        }
      ],
      "name": "transfer",
      "outputs": [
        {
          "internalType": "bool",
          "name": "",
          "type": "bool"
        }
      ],
      "stateMutability": "nonpayable",
      "type": "function"
    },
    {
      "inputs": [
        {
          "internalType": "address",
          "name": "from",
          "type": "address"
        },
        {
          "internalType": "address",
          "name": "to",
          "type": "address"
        },
        {
          "internalType": "uint256",
          "name": "value",
          "type": "uint256"
        }
      ],
      "name": "transferFrom",
      "outputs": [
        {
          "internalType": "bool",
          "name": "",
          "type": "bool"
        }
      ],
      "stateMutability": "nonpayable",
      "type": "function"
    }
  ],
  "bytecode": "0x6101a060405234801561001157600080fd5b5060405161165c38038061165c833981016040819052610030916103fd565b6040805180820190915260018152603160f81b6020820152869081908188600361005a838261052a565b506004610067828261052a565b5061007791508390506005610144565b61012052610086816006610144565b61014052815160208084019190912060e052815190820120610100524660a05261011360e05161010051604080517f8b73c3c69bb8fe3d512ecc4cf759cc79239f7b179b0ffacaa9a75d522b39400f60208201529081019290925260608201524660808201523060a082015260009060c00160405160208183030381529060405280519060200120905090565b60805250503060c052506101278385610177565b6001600160a01b0390911661016052610180525061066092505050565b600060208351101561016057610159836101b6565b9050610171565b8161016b848261052a565b5060ff90505b92915050565b6001600160a01b0382166101a65760405163ec442f0560e01b8152600060048201526024015b60405180910390fd5b6101b2600083836101f4565b5050565b600080829050601f815111156101e1578260405163305a27a960e01b815260040161019d91906105e8565b80516101ec8261061b565b179392505050565b6001600160a01b03831661021f578060026000828254610214919061063f565b909155506102919050565b6001600160a01b038316600090815260208190526040902054818110156102725760405163391434e360e21b81526001600160a01b0385166004820152602481018290526044810183905260640161019d565b6001600160a01b03841660009081526020819052604090209082900390555b6001600160a01b0382166102ad576002805482900390556102cc565b6001600160a01b03821660009081526020819052604090208054820190555b816001600160a01b0316836001600160a01b03167fddf252ad1be2c89b69c2b068fc378daa952ba7f163c4a11628f55a4df523b3ef8360405161031191815260200190565b60405180910390a3505050565b634e487b7160e01b600052604160045260246000fd5b60005b8381101561034f578181015183820152602001610337565b50506000910152565b600082601f83011261036957600080fd5b81516001600160401b038111156103825761038261031e565b604051601f8201601f19908116603f011681016001600160401b03811182821017156103b0576103b061031e565b6040528181528382016020018510156103c857600080fd5b6103d9826020830160208701610334565b949350505050565b80516001600160a01b03811681146103f857600080fd5b919050565b60008060008060008060c0878903121561041657600080fd5b86516001600160401b0381111561042c57600080fd5b61043889828a01610358565b602089015190975090506001600160401b0381111561045657600080fd5b61046289828a01610358565b6040890151909650945061047a9050606088016103e1565b9250610488608088016103e1565b9150600060a08801519050809150509295509295509295565b600181811c908216806104b557607f821691505b6020821081036104d557634e487b7160e01b600052602260045260246000fd5b50919050565b601f82111561052557806000526020600020601f840160051c810160208510156105025750805b601f840160051c820191505b81811015610522576000815560010161050e565b50505b505050565b81516001600160401b038111156105435761054361031e565b6105578161055184546104a1565b846104db565b6020601f82116001811461058b57600083156105735750848201515b600019600385901b1c1916600184901b178455610522565b600084815260208120601f198516915b828110156105bb578785015182556020948501946001909201910161059b565b50848210156105d95786840151600019600387901b60f8161c191681555b50505050600190811b01905550565b6020815260008251806020840152610607816040850160208701610334565b601f01601f19169190910160400192915050565b805160208083015191908110156104d55760001960209190910360031b1b16919050565b8082018082111561017157634e487b7160e01b600052601160045260246000fd5b60805160a05160c05160e0516101005161012051610140516101605161018051610f8c6106d0600039600061027b015260006101a50152600061078b0152600061075e01526000610706015260006106de01526000610639015260006106630152600061068d0152610f8c6000f3fe608060405234801561001057600080fd5b50600436106100f55760003560e01c80637b10399911610097578063a9059cbb11610066578063a9059cbb14610215578063d505accf14610228578063dd62ed3e1461023d578063ee7a3b8e1461027657600080fd5b80637b103999146101a05780637ecebe00146101df57806384b0196e146101f257806395d89b411461020d57600080fd5b806323b872dd116100d357806323b872dd1461014d578063313ce567146101605780633644e5151461016f57806370a082311461017757600080fd5b806306fdde03146100fa578063095ea7b31461011857806318160ddd1461013b575b600080fd5b61010261029d565b60405161010f9190610cef565b60405180910390f35b61012b610126366004610d25565b61032f565b604051901515815260200161010f565b6002545b60405190815260200161010f565b61012b61015b366004610d4f565b610349565b6040516012815260200161010f565b61013f61036d565b61013f610185366004610d8c565b6001600160a01b031660009081526020819052604090205490565b6101c77f000000000000000000000000000000000000000000000000000000000000000081565b6040516001600160a01b03909116815260200161010f565b61013f6101ed366004610d8c565b61037c565b6101fa61039a565b60405161010f9796959493929190610da7565b6101026103e0565b61012b610223366004610d25565b6103ef565b61023b610236366004610e3f565b6103fd565b005b61013f61024b366004610eb2565b6001600160a01b03918216600090815260016020908152604080832093909416825291909152205490565b61013f7f000000000000000000000000000000000000000000000000000000000000000081565b6060600380546102ac90610ee5565b80601f01602080910402602001604051908101604052809291908181526020018280546102d890610ee5565b80156103255780601f106102fa57610100808354040283529160200191610325565b820191906000526020600020905b81548152906001019060200180831161030857829003601f168201915b5050505050905090565b60003361033d81858561053c565b60019150505b92915050565b60003361035785828561054e565b6103628585856105cd565b506001949350505050565b600061037761062c565b905090565b6001600160a01b038116600090815260076020526040812054610343565b6000606080600080600060606103ae610757565b6103b6610784565b60408051600080825260208201909252600f60f81b9b939a50919850469750309650945092509050565b6060600480546102ac90610ee5565b60003361033d8185856105cd565b834211156104265760405163313c898160e11b8152600481018590526024015b60405180910390fd5b60007f6e71edae12b1b97f4d1f60370fef10105fa2faae0126114a169c64845d6126c98888886104738c6001600160a01b0316600090815260076020526040902080546001810190915590565b6040805160208101969096526001600160a01b0394851690860152929091166060840152608083015260a082015260c0810186905260e00160405160208183030381529060405280519060200120905060006104ce826107b1565b905060006104de828787876107de565b9050896001600160a01b0316816001600160a01b031614610525576040516325c0072360e11b81526001600160a01b0380831660048301528b16602482015260440161041d565b6105308a8a8a61053c565b50505050505050505050565b610549838383600161080c565b505050565b6001600160a01b038381166000908152600160209081526040808320938616835292905220546000198110156105c757818110156105b857604051637dc7a0d960e11b81526001600160a01b0384166004820152602481018290526044810183905260640161041d565b6105c78484848403600061080c565b50505050565b6001600160a01b0383166105f757604051634b637e8f60e11b81526000600482015260240161041d565b6001600160a01b0382166106215760405163ec442f0560e01b81526000600482015260240161041d565b6105498383836108e1565b6000306001600160a01b037f00000000000000000000000000000000000000000000000000000000000000001614801561068557507f000000000000000000000000000000000000000000000000000000000000000046145b156106af57507f000000000000000000000000000000000000000000000000000000000000000090565b610377604080517f8b73c3c69bb8fe3d512ecc4cf759cc79239f7b179b0ffacaa9a75d522b39400f60208201527f0000000000000000000000000000000000000000000000000000000000000000918101919091527f000000000000000000000000000000000000000000000000000000000000000060608201524660808201523060a082015260009060c00160405160208183030381529060405280519060200120905090565b60606103777f00000000000000000000000000000000000000000000000000000000000000006005610a0b565b60606103777f00000000000000000000000000000000000000000000000000000000000000006006610a0b565b60006103436107be61062c565b8360405161190160f01b8152600281019290925260228201526042902090565b6000806000806107f088888888610ab6565b9250925092506108008282610b85565b50909695505050505050565b6001600160a01b0384166108365760405163e602df0560e01b81526000600482015260240161041d565b6001600160a01b03831661086057604051634a1406b160e11b81526000600482015260240161041d565b6001600160a01b03808516600090815260016020908152604080832093871683529290522082905580156105c757826001600160a01b0316846001600160a01b03167f8c5be1e5ebec7d5bd14f71427d1e84f3dd0314c0f7b2291e5b200ac8c7c3b925846040516108d391815260200190565b60405180910390a350505050565b6001600160a01b03831661090c5780600260008282546109019190610f1f565b9091555061097e9050565b6001600160a01b0383166000908152602081905260409020548181101561095f5760405163391434e360e21b81526001600160a01b0385166004820152602481018290526044810183905260640161041d565b6001600160a01b03841660009081526020819052604090209082900390555b6001600160a01b03821661099a576002805482900390556109b9565b6001600160a01b03821660009081526020819052604090208054820190555b816001600160a01b0316836001600160a01b03167fddf252ad1be2c89b69c2b068fc378daa952ba7f163c4a11628f55a4df523b3ef836040516109fe91815260200190565b60405180910390a3505050565b606060ff8314610a2557610a1e83610c42565b9050610343565b818054610a3190610ee5565b80601f0160208091040260200160405190810160405280929190818152602001828054610a5d90610ee5565b8015610aaa5780601f10610a7f57610100808354040283529160200191610aaa565b820191906000526020600020905b815481529060010190602001808311610a8d57829003601f168201915b50505050509050610343565b600080807f7fffffffffffffffffffffffffffffff5d576e7357a4501ddfe92f46681b20a0841115610af15750600091506003905082610b7b565b604080516000808252602082018084528a905260ff891692820192909252606081018790526080810186905260019060a0016020604051602081039080840390855afa158015610b45573d6000803e3d6000fd5b5050604051601f1901519150506001600160a01b038116610b7157506000925060019150829050610b7b565b9250600091508190505b9450945094915050565b6000826003811115610b9957610b99610f40565b03610ba2575050565b6001826003811115610bb657610bb6610f40565b03610bd45760405163f645eedf60e01b815260040160405180910390fd5b6002826003811115610be857610be8610f40565b03610c095760405163fce698f760e01b81526004810182905260240161041d565b6003826003811115610c1d57610c1d610f40565b03610c3e576040516335e2f38360e21b81526004810182905260240161041d565b5050565b60606000610c4f83610c81565b604080516020808252818301909252919250600091906020820181803683375050509182525060208101929092525090565b600060ff8216601f81111561034357604051632cd44ac360e21b815260040160405180910390fd5b6000815180845260005b81811015610ccf57602081850181015186830182015201610cb3565b506000602082860101526020601f19601f83011685010191505092915050565b602081526000610d026020830184610ca9565b9392505050565b80356001600160a01b0381168114610d2057600080fd5b919050565b60008060408385031215610d3857600080fd5b610d4183610d09565b946020939093013593505050565b600080600060608486031215610d6457600080fd5b610d6d84610d09565b9250610d7b60208501610d09565b929592945050506040919091013590565b600060208284031215610d9e57600080fd5b610d0282610d09565b60ff60f81b8816815260e060208201526000610dc660e0830189610ca9565b8281036040840152610dd88189610ca9565b606084018890526001600160a01b038716608085015260a0840186905283810360c08501528451808252602080870193509091019060005b81811015610e2e578351835260209384019390920191600101610e10565b50909b9a5050505050505050505050565b600080600080600080600060e0888a031215610e5a57600080fd5b610e6388610d09565b9650610e7160208901610d09565b95506040880135945060608801359350608088013560ff81168114610e9557600080fd5b9699959850939692959460a0840135945060c09093013592915050565b60008060408385031215610ec557600080fd5b610ece83610d09565b9150610edc60208401610d09565b90509250929050565b600181811c90821680610ef957607f821691505b602082108103610f1957634e487b7160e01b600052602260045260246000fd5b50919050565b8082018082111561034357634e487b7160e01b600052601160045260246000fd5b634e487b7160e01b600052602160045260246000fdfea26469706673582212202c721ffcbc0b374b08b6dac0ad46cb8b9e756066c33d58111139c1ab9190d59364736f6c634300081e0033",
  "linkReferences": {},
  "deployedLinkReferences": {}
}