{
  "address": "0x084622e6970BBcBA510454C6145313c2993ED9E4",
  "abi": [
    {
      "inputs": [
        {
          "internalType": "address",
          "name": "admin",
          "type": "address"
        }
      ],
      "stateMutability": "nonpayable",
      "type": "constructor"
    },
    {
      "inputs": [],
      "name": "AccessControlBadConfirmation",
      "type": "error"
    },
    {
      "inputs": [
        {
          "internalType": "address",
          "name": "account",
          "type": "address"
        },
        {
          "internalType": "bytes32",
          "name": "neededRole",
          "type": "bytes32"
        }
      ],
      "name": "AccessControlUnauthorizedAccount",
      "type": "error"
    },
    {
      "inputs": [],
      "name": "EnforcedPause",
      "type": "error"
    },
    {
      "inputs": [],
      "name": "ExpectedPause",
      "type": "error"
    },
    {
      "inputs": [],
      "name": "ReentrancyGuardReentrantCall",
      "type": "error"
    },
    {
      "anonymous": false,
      "inputs": [
        {
          "indexed": false,
          "internalType": "address",
          "name": "account",
          "type": "address"
        }
      ],
      "name": "Paused",
      "type": "event"
    },
    {
      "anonymous": false,
      "inputs": [
        {
          "indexed": true,
          "internalType": "uint256",
          "name": "id",
          "type": "uint256"
        },
        {
          "indexed": true,
          "internalType": "address",
          "name": "owner",
          "type": "address"
        },
        {
          "indexed": false,
          "internalType": "uint256",
          "name": "value",
          "type": "uint256"
        },
        {
          "indexed": false,
          "internalType": "uint256",
          "name": "totalFractions",
          "type": "uint256"
        },
        {
          "indexed": false,
          "internalType": "string",
          "name": "uri",
          "type": "string"
        }
      ],
      "name": "PropertyRegistered",
      "type": "event"
    },
    {
      "anonymous": false,
      "inputs": [
        {
          "indexed": true,
          "internalType": "uint256",
          "name": "id",
          "type": "uint256"
        },
        {
          "indexed": true,
          "internalType": "address",
          "name": "oldOwner",
          "type": "address"
        },
        {
          "indexed": true,
          "internalType": "address",
          "name": "newOwner",
          "type": "address"
        },
        {
          "indexed": false,
          "internalType": "uint256",
          "name": "value",
          "type": "uint256"
        }
      ],
      "name": "PropertyTransferred",
      "type": "event"
    },
    {
      "anonymous": false,
      "inputs": [
        {
          "indexed": true,
          "internalType": "uint256",
          "name": "id",
          "type": "uint256"
        },
        {
          "indexed": false,
          "internalType": "bool",
          "name": "verified",
          "type": "bool"
        }
      ],
      "name": "PropertyVerified",
      "type": "event"
    },
    {
      "anonymous": false,
      "inputs": [
        {
          "indexed": true,
          "internalType": "bytes32",
          "name": "role",
          "type": "bytes32"
        },
        {
          "indexed": true,
          "internalType": "bytes32",
          "name": "previousAdminRole",
          "type": "bytes32"
        },
        {
          "indexed": true,
          "internalType": "bytes32",
          "name": "newAdminRole",
          "type": "bytes32"
        }
      ],
      "name": "RoleAdminChanged",
      "type": "event"
    },
    {
      "anonymous": false,
      "inputs": [
        {
          "indexed": true,
          "internalType": "bytes32",
          "name": "role",
          "type": "bytes32"
        },
        {
          "indexed": true,
          "internalType": "address",
          "name": "account",
          "type": "address"
        },
        {
          "indexed": true,
          "internalType": "address",
          "name": "sender",
          "type": "address"
        }
      ],
      "name": "RoleGranted",
      "type": "event"
    },
    {
      "anonymous": false,
      "inputs": [
        {
          "indexed": true,
          "internalType": "bytes32",
          "name": "role",
          "type": "bytes32"
        },
        {
          "indexed": true,
          "internalType": "address",
          "name": "account",
          "type": "address"
        },
        {
          "indexed": true,
          "internalType": "address",
          "name": "sender",
          "type": "address"
        }
      ],
      "name": "RoleRevoked",
      "type": "event"
    },
    {
      "anonymous": false,
      "inputs": [
        {
          "indexed": false,
          "internalType": "address",
          "name": "account",
          "type": "address"
        }
      ],
      "name": "Unpaused",
      "type": "event"
    },
    {
      "inputs": [],
      "name": "ADMIN_ROLE",
      "outputs": [
        {
          "internalType": "bytes32",
          "name": "",
          "type": "bytes32"
        }
      ],
      "stateMutability": "view",
      "type": "function"
    },
    {
      "inputs": [],
      "name": "DEFAULT_ADMIN_ROLE",
      "outputs": [
        {
          "internalType": "bytes32",
          "name": "",
          "type": "bytes32"
        }
      ],
      "stateMutability": "view",
      "type": "function"
    },
    {
      "inputs": [
        {
          "internalType": "uint256",
          "name": "propertyId",
          "type": "uint256"
        },
        {
          "internalType": "address",
          "name": "newOwner",
          "type": "address"
        },
        {
          "internalType": "uint256",
          "name": "price",
          "type": "uint256"
        }
      ],
      "name": "finalizeSale",
      "outputs": [],
      "stateMutability": "nonpayable",
      "type": "function"
    },
    {
      "inputs": [
        {
          "internalType": "uint256",
          "name": "propertyId",
          "type": "uint256"
        }
      ],
      "name": "getProperty",
      "outputs": [
        {
          "components": [
            {
              "internalType": "uint256",
              "name": "id",
              "type": "uint256"
            },
            {
              "internalType": "address",
              "name": "owner",
              "type": "address"
            },
            {
              "internalType": "uint256",
              "name": "value",
              "type": "uint256"
            },
            {
              "internalType": "uint256",
              "name": "totalFractions",
              "type": "uint256"
            },
            {
              "internalType": "string",
              "name": "metadataURI",
              "type": "string"
            },
            {
              "internalType": "bool",
              "name": "verified",
              "type": "bool"
            },
            {
              "internalType": "bool",
              "name": "active",
              "type": "bool"
            }
          ],
          "internalType": "struct PropertyRegistry.Property",
          "name": "",
          "type": "tuple"
        }
      ],
      "stateMutability": "view",
      "type": "function"
    },
    {
      "inputs": [
        {
          "internalType": "bytes32",
          "name": "role",
          "type": "bytes32"
        }
      ],
      "name": "getRoleAdmin",
      "outputs": [
        {
          "internalType": "bytes32",
          "name": "",
          "type": "bytes32"
        }
      ],
      "stateMutability": "view",
      "type": "function"
    },
    {
      "inputs": [
        {
          "internalType": "bytes32",
          "name": "role",
          "type": "bytes32"
        },
        {
          "internalType": "address",
          "name": "account",
          "type": "address"
        }
      ],
      "name": "grantRole",
      "outputs": [],
      "stateMutability": "nonpayable",
      "type": "function"
    },
    {
      "inputs": [
        {
          "internalType": "bytes32",
          "name": "role",
          "type": "bytes32"
        },
        {
          "internalType": "address",
          "name": "account",
          "type": "address"
        }
      ],
      "name": "hasRole",
      "outputs": [
        {
          "internalType": "bool",
          "name": "",
          "type": "bool"
        }
      ],
      "stateMutability": "view",
      "type": "function"
    },
    {
      "inputs": [],
      "name": "nextPropertyId",
      "outputs": [
        {
          "internalType": "uint256",
          "name": "",
          "type": "uint256"
        }
      ],
      "stateMutability": "view",
      "type": "function"
    },
    {
      "inputs": [],
      "name": "pause",
      "outputs": [],
      "stateMutability": "nonpayable",
      "type": "function"
    },
    {
      "inputs": [],
      "name": "paused",
      "outputs": [
        {
          "internalType": "bool",
          "name": "",
          "type": "bool"
        }
      ],
      "stateMutability": "view",
      "type": "function"
    },
    {
      "inputs": [
        {
          "internalType": "uint256",
          "name": "value",
          "type": "uint256"
        },
        {
          "internalType": "uint256",
          "name": "totalFractions",
          "type": "uint256"
        },
        {
          "internalType": "string",
          "name": "metadataURI",
          "type": "string"
        }
      ],
      "name": "registerProperty",
      "outputs": [
        {
          "internalType": "uint256",
          "name": "",
          "type": "uint256"
        }
      ],
      "stateMutability": "nonpayable",
      "type": "function"
    },
    {
      "inputs": [
        {
          "internalType": "bytes32",
          "name": "role",
          "type": "bytes32"
        },
        {
          "internalType": "address",
          "name": "callerConfirmation",
          "type": "address"
        }
      ],
      "name": "renounceRole",
      "outputs": [],
      "stateMutability": "nonpayable",
      "type": "function"
    },
    {
      "inputs": [
        {
          "internalType": "bytes32",
          "name": "role",
          "type": "bytes32"
        },
        {
          "internalType": "address",
          "name": "account",
          "type": "address"
        }
      ],
      "name": "revokeRole",
      "outputs": [],
      "stateMutability": "nonpayable",
      "type": "function"
    },
    {
      "inputs": [
        {
          "internalType": "bytes4",
          "name": "interfaceId",
          "type": "bytes4"
        }
      ],
      "name": "supportsInterface",
      "outputs": [
        {
          "internalType": "bool",
          "name": "",
          "type": "bool"
        }
      ],
      "stateMutability": "view",
      "type": "function"
    },
    {
      "inputs": [],
      "name": "unpause",
      "outputs": [],
      "stateMutability": "nonpayable",
      "type": "function"
    },
    {
      "inputs": [
        {
          "internalType": "uint256",
          "name": "propertyId",
          "type": "uint256"
        },
        {
          "internalType": "bool",
          "name": "status",
          "type": "bool"
        }
      ],
      "name": "verifyProperty",
      "outputs": [],
      "stateMutability": "nonpayable",
      "type": "function"
    }
  ],
  "transactionHash": "0x925eb8e9f3264c9c7fe2883baf60f5c184fac784c8be69940892d7da7bcc047a",
  "args": [
    "0x2c3b2B2325610a6814f2f822D0bF4DAB8CF16e16"
  ],
  "numDeployments": 1,
  "solcInputHash": "02b8b7906ec2c8811b860de51d2bf7df",
  "bytecode": "0x608060405234801561001057600080fd5b50604051610f2b380380610f2b83398101604081905261002f9161011c565b6001805561003e600082610070565b506100697fa49807205ce4d355092ef5a8a18f56e8913cf4a201fbe287825b095693c2177582610070565b505061014c565b6000828152602081815260408083206001600160a01b038516845290915281205460ff16610112576000838152602081815260408083206001600160a01b03861684529091529020805460ff191660011790556100ca3390565b6001600160a01b0316826001600160a01b0316847f2f8788117e7eff1d82e926ec794901d17c78024a50270940304540a733656f0d60405160405180910390a4506001610116565b5060005b92915050565b60006020828403121561012e57600080fd5b81516001600160a01b038116811461014557600080fd5b9392505050565b610dd08061015b6000396000f3fe608060405234801561001057600080fd5b50600436106101005760003560e01c80635c975abb116100975780639291e8b7116100665780639291e8b714610205578063a217fddf14610218578063ccfc7f7214610220578063d547741f1461023357600080fd5b80635c975abb146101ca57806375b238fc146101d55780638456cb59146101ea57806391d14854146101f257600080fd5b806332665ffb116100d357806332665ffb1461018657806336568abe146101a657806339500f34146101b95780633f4ba83a146101c257600080fd5b806301ffc9a714610105578063248a9ca31461012d5780632f2ff15d1461015e578063322bb11614610173575b600080fd5b610118610113366004610991565b610246565b60405190151581526020015b60405180910390f35b61015061013b3660046109c2565b60009081526020819052604090206001015490565b604051908152602001610124565b61017161016c3660046109f7565b61027d565b005b610171610181366004610a23565b6102a8565b6101996101943660046109c2565b61031b565b6040516101249190610a58565b6101716101b43660046109f7565b61045c565b61015060045481565b610171610494565b60025460ff16610118565b610150600080516020610d7b83398151915281565b6101716104b7565b6101186102003660046109f7565b6104d7565b610171610213366004610b00565b610500565b610150600081565b61015061022e366004610b36565b6105e2565b6101716102413660046109f7565b610750565b60006001600160e01b03198216637965db0b60e01b148061027757506301ffc9a760e01b6001600160e01b03198316145b92915050565b60008281526020819052604090206001015461029881610775565b6102a2838361077f565b50505050565b600080516020610d7b8339815191526102c081610775565b600083815260036020908152604091829020600501805460ff1916851515908117909155915191825284917fafdcc517a26e633f535aa9cebec29f4281ab2ffa922a475b12fd1297ad765bc8910160405180910390a2505050565b6040805160e0810182526000808252602082018190529181018290526060808201839052608082015260a0810182905260c0810191909152600082815260036020818152604092839020835160e0810185528154815260018201546001600160a01b0316928101929092526002810154938201939093529082015460608201526004820180549192916080840191906103b390610bb9565b80601f01602080910402602001604051908101604052809291908181526020018280546103df90610bb9565b801561042c5780601f106104015761010080835404028352916020019161042c565b820191906000526020600020905b81548152906001019060200180831161040f57829003601f168201915b50505091835250506005919091015460ff8082161515602084015261010090910416151560409091015292915050565b6001600160a01b03811633146104855760405163334bd91960e11b815260040160405180910390fd5b61048f8282610811565b505050565b600080516020610d7b8339815191526104ac81610775565b6104b461087c565b50565b600080516020610d7b8339815191526104cf81610775565b6104b46108ce565b6000918252602082815260408084206001600160a01b0393909316845291905290205460ff1690565b61050861090b565b600080516020610d7b83398151915261052081610775565b60008481526003602052604090206005810154610100900460ff166105775760405162461bcd60e51b8152602060048201526008602482015267496e61637469766560c01b60448201526064015b60405180910390fd5b6001810180546001600160a01b038681166001600160a01b03198316811790935560405191169190829088907fa57b4707b863fa4d85ff792987d8e13ff99ac4c4f237969e628682fbe257dcb7906105d29089815260200190565b60405180910390a4505050505050565b60006105ec61090b565b60048054600091826105fd83610bf3565b9190505590506040518060e00160405280828152602001336001600160a01b0316815260200187815260200186815260200185858080601f0160208091040260200160405190810160405280939291908181526020018383808284376000920182905250938552505050602080830182905260016040938401819052858352600380835292849020855181559185015190820180546001600160a01b0319166001600160a01b03909216919091179055918301516002830155606083015190820155608082015160048201906106d39082610c7e565b5060a08201516005909101805460c09093015115156101000261ff00199215159290921661ffff1990931692909217179055604051339082907f4412373545e6dccbfc2488ddcc8ff966a2e6f11db627e5e6facb0838617925029061073f908a908a908a908a90610d3d565b60405180910390a395945050505050565b60008281526020819052604090206001015461076b81610775565b6102a28383610811565b6104b48133610931565b600061078b83836104d7565b610809576000838152602081815260408083206001600160a01b03861684529091529020805460ff191660011790556107c13390565b6001600160a01b0316826001600160a01b0316847f2f8788117e7eff1d82e926ec794901d17c78024a50270940304540a733656f0d60405160405180910390a4506001610277565b506000610277565b600061081d83836104d7565b15610809576000838152602081815260408083206001600160a01b0386168085529252808320805460ff1916905551339286917ff6391f5c32d9c69d2a47ea670b442974b53935d1edc7fd64eb21e047a839171b9190a4506001610277565b61088461096e565b6002805460ff191690557f5db9ee0a495bf2e6ff9c91a7834c1ba4fdd244a5e8aa4e537bd38aeae4b073aa335b6040516001600160a01b03909116815260200160405180910390a1565b6108d661090b565b6002805460ff191660011790557f62e78cea01bee320cd4e420270b5ea74000d11b0c9f74754ebdbfc544b05a2586108b13390565b60025460ff161561092f5760405163d93c066560e01b815260040160405180910390fd5b565b61093b82826104d7565b61096a5760405163e2517d3f60e01b81526001600160a01b03821660048201526024810183905260440161056e565b5050565b60025460ff1661092f57604051638dfc202b60e01b815260040160405180910390fd5b6000602082840312156109a357600080fd5b81356001600160e01b0319811681146109bb57600080fd5b9392505050565b6000602082840312156109d457600080fd5b5035919050565b80356001600160a01b03811681146109f257600080fd5b919050565b60008060408385031215610a0a57600080fd5b82359150610a1a602084016109db565b90509250929050565b60008060408385031215610a3657600080fd5b8235915060208301358015158114610a4d57600080fd5b809150509250929050565b602081528151602082015260018060a01b03602083015116604082015260408201516060820152606082015160808201526000608083015160e060a084015280518061010085015260005b81811015610ac1576020818401810151610120878401015201610aa3565b506000848201610120015260a085015180151560c0860152915060c085015180151560e08601529150601f01601f191692909201610120019392505050565b600080600060608486031215610b1557600080fd5b83359250610b25602085016109db565b929592945050506040919091013590565b60008060008060608587031215610b4c57600080fd5b8435935060208501359250604085013567ffffffffffffffff811115610b7157600080fd5b8501601f81018713610b8257600080fd5b803567ffffffffffffffff811115610b9957600080fd5b876020828401011115610bab57600080fd5b949793965060200194505050565b600181811c90821680610bcd57607f821691505b602082108103610bed57634e487b7160e01b600052602260045260246000fd5b50919050565b600060018201610c1357634e487b7160e01b600052601160045260246000fd5b5060010190565b634e487b7160e01b600052604160045260246000fd5b601f82111561048f57806000526020600020601f840160051c81016020851015610c575750805b601f840160051c820191505b81811015610c775760008155600101610c63565b5050505050565b815167ffffffffffffffff811115610c9857610c98610c1a565b610cac81610ca68454610bb9565b84610c30565b6020601f821160018114610ce05760008315610cc85750848201515b600019600385901b1c1916600184901b178455610c77565b600084815260208120601f198516915b82811015610d105787850151825560209485019460019092019101610cf0565b5084821015610d2e5786840151600019600387901b60f8161c191681555b50505050600190811b01905550565b84815283602082015260606040820152816060820152818360808301376000818301608090810191909152601f909201601f19160101939250505056fea49807205ce4d355092ef5a8a18f56e8913cf4a201fbe287825b095693c21775a2646970667358221220be3e10c3615b2300120483dc0f80ac94d8f5532a8e25a805dd24c33a3b86aa0d64736f6c634300081e0033",
  "devdoc": {
    "errors": {
      "AccessControlBadConfirmation()": [
        {
          "details": "The caller of a function is not the expected one. NOTE: Don't confuse with {AccessControlUnauthorizedAccount}."
        }
      ],
      "AccessControlUnauthorizedAccount(address,bytes32)": [
        {
          "details": "The `account` is missing a role."
        }
      ],
      "EnforcedPause()": [
        {
          "details": "The operation failed because the contract is paused."
        }
      ],
      "ExpectedPause()": [
        {
          "details": "The operation failed because the contract is not paused."
        }
      ],
      "ReentrancyGuardReentrantCall()": [
        {
          "details": "Unauthorized reentrant call."
        }
      ]
    },
    "events": {
      "Paused(address)": {
        "details": "Emitted when the pause is triggered by `account`."
      },
      "RoleAdminChanged(bytes32,bytes32,bytes32)": {
        "details": "Emitted when `newAdminRole` is set as ``role``'s admin role, replacing `previousAdminRole` `DEFAULT_ADMIN_ROLE` is the starting admin for all roles, despite {RoleAdminChanged} not being emitted to signal this."
      },
      "RoleGranted(bytes32,address,address)": {
        "details": "Emitted when `account` is granted `role`. `sender` is the account that originated the contract call. This account bears the admin role (for the granted role). Expected in cases where the role was granted using the internal {AccessControl-_grantRole}."
      },
      "RoleRevoked(bytes32,address,address)": {
        "details": "Emitted when `account` is revoked `role`. `sender` is the account that originated the contract call:   - if using `revokeRole`, it is the admin role bearer   - if using `renounceRole`, it is the role bearer (i.e. `account`)"
      },
      "Unpaused(address)": {
        "details": "Emitted when the pause is lifted by `account`."
      }
    },
    "kind": "dev",
    "methods": {
      "getRoleAdmin(bytes32)": {
        "details": "Returns the admin role that controls `role`. See {grantRole} and {revokeRole}. To change a role's admin, use {_setRoleAdmin}."
      },
      "grantRole(bytes32,address)": {
        "details": "Grants `role` to `account`. If `account` had not been already granted `role`, emits a {RoleGranted} event. Requirements: - the caller must have ``role``'s admin role. May emit a {RoleGranted} event."
      },
      "hasRole(bytes32,address)": {
        "details": "Returns `true` if `account` has been granted `role`."
      },
      "paused()": {
        "details": "Returns true if the contract is paused, and false otherwise."
      },
      "renounceRole(bytes32,address)": {
        "details": "Revokes `role` from the calling account. Roles are often managed via {grantRole} and {revokeRole}: this function's purpose is to provide a mechanism for accounts to lose their privileges if they are compromised (such as when a trusted device is misplaced). If the calling account had been revoked `role`, emits a {RoleRevoked} event. Requirements: - the caller must be `callerConfirmation`. May emit a {RoleRevoked} event."
      },
      "revokeRole(bytes32,address)": {
        "details": "Revokes `role` from `account`. If `account` had been granted `role`, emits a {RoleRevoked} event. Requirements: - the caller must have ``role``'s admin role. May emit a {RoleRevoked} event."
      },
      "supportsInterface(bytes4)": {
        "details": "Returns true if this contract implements the interface defined by `interfaceId`. See the corresponding https://eips.ethereum.org/EIPS/eip-165#how-interfaces-are-identified[ERC section] to learn more about how these ids are created. This function call must use less than 30 000 gas."
      }
    },
    "version": 1
  },
  "userdoc": {
    "kind": "user",
    "methods": {},
    "version": 1
  },
  "storageLayout": {
    "storage": [
      {
        "astId": 27,
        "contract": "contracts/PropertyRegistry.sol:PropertyRegistry",
        "label": "_roles",
        "offset": 0,
        "slot": "0",
        "type": "t_mapping(t_bytes32,t_struct(RoleData)22_storage)"
      },
      {
        "astId": 1619,
        "contract": "contracts/PropertyRegistry.sol:PropertyRegistry",
        "label": "_status",
        "offset": 0,
        "slot": "1",
        "type": "t_uint256"
      },
      {
        "astId": 1509,
        "contract": "contracts/PropertyRegistry.sol:PropertyRegistry",
        "label": "_paused",
        "offset": 0,
        "slot": "2",
        "type": "t_bool"
      },
      {
        "astId": 7964,
        "contract": "contracts/PropertyRegistry.sol:PropertyRegistry",
        "label": "properties",
        "offset": 0,
        "slot": "3",
        "type": "t_mapping(t_uint256,t_struct(Property)7959_storage)"
      },
      {
        "astId": 7966,
        "contract": "contracts/PropertyRegistry.sol:PropertyRegistry",
        "label": "nextPropertyId",
        "offset": 0,
        "slot": "4",
        "type": "t_uint256"
      }
    ],
    "types": {
      "t_address": {
        "encoding": "inplace",
        "label": "address",
        "numberOfBytes": "20"
      },
      "t_bool": {
        "encoding": "inplace",
        "label": "bool",
        "numberOfBytes": "1"
      },
      "t_bytes32": {
        "encoding": "inplace",
        "label": "bytes32",
        "numberOfBytes": "32"
      },
      "t_mapping(t_address,t_bool)": {
        "encoding": "mapping",
        "key": "t_address",
        "label": "mapping(address => bool)",
        "numberOfBytes": "32",
        "value": "t_bool"
      },
      "t_mapping(t_bytes32,t_struct(RoleData)22_storage)": {
        "encoding": "mapping",
        "key": "t_bytes32",
        "label": "mapping(bytes32 => struct AccessControl.RoleData)",
        "numberOfBytes": "32",
        "value": "t_struct(RoleData)22_storage"
      },
      "t_mapping(t_uint256,t_struct(Property)7959_storage)": {
        "encoding": "mapping",
        "key": "t_uint256",
        "label": "mapping(uint256 => struct PropertyRegistry.Property)",
        "numberOfBytes": "32",
        "value": "t_struct(Property)7959_storage"
      },
      "t_string_storage": {
        "encoding": "bytes",
        "label": "string",
        "numberOfBytes": "32"
      },
      "t_struct(Property)7959_storage": {
        "encoding": "inplace",
        "label": "struct PropertyRegistry.Property",
        "members": [
          {
            "astId": 7946,
            "contract": "contracts/PropertyRegistry.sol:PropertyRegistry",
            "label": "id",
            "offset": 0,
            "slot": "0",
            "type": "t_uint256"
          },
          {
            "astId": 7948,
            "contract": "contracts/PropertyRegistry.sol:PropertyRegistry",
            "label": "owner",
            "offset": 0,
            "slot": "1",
            "type": "t_address"
          },
          {
            "astId": 7950,
            "contract": "contracts/PropertyRegistry.sol:PropertyRegistry",
            "label": "value",
            "offset": 0,
            "slot": "2",
            "type": "t_uint256"
          },
          {
            "astId": 7952,
            "contract": "contracts/PropertyRegistry.sol:PropertyRegistry",
            "label": "totalFractions",
            "offset": 0,
            "slot": "3",
            "type": "t_uint256"
          },
          {
            "astId": 7954,
            "contract": "contracts/PropertyRegistry.sol:PropertyRegistry",
            "label": "metadataURI",
            "offset": 0,
            "slot": "4",
            "type": "t_string_storage"
          },
          {
            "astId": 7956,
            "contract": "contracts/PropertyRegistry.sol:PropertyRegistry",
            "label": "verified",
            "offset": 0,
            "slot": "5",
            "type": "t_bool"
          },
          {
            "astId": 7958,
            "contract": "contracts/PropertyRegistry.sol:PropertyRegistry",
            "label": "active",
            "offset": 1,
            "slot": "5",
            "type": "t_bool"
          }
        ],
        "numberOfBytes": "192"
      },
      "t_struct(RoleData)22_storage": {
        "encoding": "inplace",
        "label": "struct AccessControl.RoleData",
        "members": [
          {
            "astId": 19,
            "contract": "contracts/PropertyRegistry.sol:PropertyRegistry",
            "label": "hasRole",
            "offset": 0,
            "slot": "0",
            "type": "t_mapping(t_address,t_bool)"
          },
          {
            "astId": 21,
            "contract": "contracts/PropertyRegistry.sol:PropertyRegistry",
            "label": "adminRole",
            "offset": 0,
            "slot": "1",
            "type": "t_bytes32"
          }
        ],
        "numberOfBytes": "64"
      },
      "t_uint256": {
        "encoding": "inplace",
        "label": "uint256",
        "numberOfBytes": "32"
      }
    }
  }
}