{
  "address": "0x589C1494089889C077d7AbBA17B40575E961cC8c",
  "abi": [
    {
      "inputs": [
        {
          "internalType": "address",
          "name": "_token",
          "type": "address"
        }
      ],
      "stateMutability": "nonpayable",
      "type": "constructor"
    },
    {
      "inputs": [],
      "name": "ReentrancyGuardReentrantCall",
      "type": "error"
    },
    {
      "inputs": [],
      "name": "propertyToken",
      "outputs": [
        {
          "internalType": "contract IERC20",
          "name": "",
          "type": "address"
        }
      ],
      "stateMutability": "view",
      "type": "function"
    },
    {
      "inputs": [],
      "name": "withdrawRent",
      "outputs": [],
      "stateMutability": "nonpayable",
      "type": "function"
    },
    {
      "stateMutability": "payable",
      "type": "receive"
    }
  ],
  "transactionHash": "0xa769833972853e2eaf201536f8ad35891cd10a4fdfcced635ad68f3e23d60c5d",
  "args": [
    "0xcc68Ce1342B91cC9A1F97e8863c77465910f2e63"
  ],
  "numDeployments": 1,
  "solcInputHash": "02b8b7906ec2c8811b860de51d2bf7df",
  "bytecode": "0x60a060405234801561001057600080fd5b5060405161046038038061046083398101604081905261002f91610045565b60016000556001600160a01b0316608052610075565b60006020828403121561005757600080fd5b81516001600160a01b038116811461006e57600080fd5b9392505050565b6080516103c461009c60003960008181604b0152818160b1015261019b01526103c46000f3fe60806040526004361061002d5760003560e01c806343ae2695146100395780636322182e1461008957600080fd5b3661003457005b600080fd5b34801561004557600080fd5b5061006d7f000000000000000000000000000000000000000000000000000000000000000081565b6040516001600160a01b03909116815260200160405180910390f35b34801561009557600080fd5b5061009e6100a0565b005b6100a86102fe565b600047905060007f00000000000000000000000000000000000000000000000000000000000000006001600160a01b03166318160ddd6040518163ffffffff1660e01b8152600401602060405180830381865afa15801561010d573d6000803e3d6000fd5b505050506040513d601f19601f820116820180604052508101906101319190610328565b9050600081116101795760405162461bcd60e51b815260206004820152600e60248201526d496e76616c696420737570706c7960901b60448201526064015b60405180910390fd5b6040516370a0823160e01b815233600482015260009082906001600160a01b037f000000000000000000000000000000000000000000000000000000000000000016906370a0823190602401602060405180830381865afa1580156101e2573d6000803e3d6000fd5b505050506040513d601f19601f820116820180604052508101906102069190610328565b6102109085610341565b61021a919061036c565b9050600081116102605760405162461bcd60e51b81526020600482015260116024820152704e6f2072656e7420617661696c61626c6560781b6044820152606401610170565b604051600090339083908381818185875af1925050503d80600081146102a2576040519150601f19603f3d011682016040523d82523d6000602084013e6102a7565b606091505b50509050806102ee5760405162461bcd60e51b8152602060048201526013602482015272115512081d1c985b9cd9995c8819985a5b1959606a1b6044820152606401610170565b505050506102fc6001600055565b565b60026000540361032157604051633ee5aeb560e01b815260040160405180910390fd5b6002600055565b60006020828403121561033a57600080fd5b5051919050565b808202811582820484141761036657634e487b7160e01b600052601160045260246000fd5b92915050565b60008261038957634e487b7160e01b600052601260045260246000fd5b50049056fea26469706673582212209874b2414bd71ed87c6d5610cbc1eb541cd7e8ff60f9f4fe52a2af5f72f52c7964736f6c634300081e0033",
  "devdoc": {
    "errors": {
      "ReentrancyGuardReentrantCall()": [
        {
          "details": "Unauthorized reentrant call."
        }
      ]
    },
    "kind": "dev",
    "methods": {},
    "version": 1
  },
  "userdoc": {
    "kind": "user",
    "methods": {},
    "version": 1
  },
  "storageLayout": {
    "storage": [
      {
        "astId": 1619,
        "contract": "contracts/RentalDistributor.sol:RentalDistributor",
        "label": "_status",
        "offset": 0,
        "slot": "0",
        "type": "t_uint256"
      }
    ],
    "types": {
      "t_uint256": {
        "encoding": "inplace",
        "label": "uint256",
        "numberOfBytes": "32"
      }
    }
  }
}